{
  "_format": "hh-sol-artifact-1",
  "contractName": "SubNav",
  "sourceName": "contracts/SubNav.sol",
  "abi": [
    {
      "inputs": [
        {
          "internalType": "string",
          "name": "pChainAddress",
          "type": "string"
        },
        {
          "internalType": "string",
          "name": "signedControlKey",
          "type": "string"
        }
      ],
      "name": "addControlKeySig",
      "outputs": [],
      "stateMutability": "nonpayable",
      "type": "function"
    },
    {
      "inputs": [],
      "name": "getSubnetIDs",
      "outputs": [
        {
          "internalType": "string[]",
          "name": "",
          "type": "string[]"
        }
      ],
      "stateMutability": "nonpayable",
      "type": "function"
    },
    {
      "inputs": [
        {
          "internalType": "string",
          "name": "subnetID",
          "type": "string"
        },
        {
          "internalType": "string",
          "name": "name",
          "type": "string"
        },
        {
          "internalType": "string",
          "name": "description",
          "type": "string"
        },
        {
          "internalType": "string",
          "name": "owner",
          "type": "string"
        }
      ],
      "name": "registerSubnet",
      "outputs": [],
      "stateMutability": "nonpayable",
      "type": "function"
    },
    {
      "inputs": [
        {
          "internalType": "string",
          "name": "mail",
          "type": "string"
        },
        {
          "internalType": "string",
          "name": "twitterHandle",
          "type": "string"
        }
      ],
      "name": "registerUser",
      "outputs": [],
      "stateMutability": "nonpayable",
      "type": "function"
    },
    {
      "inputs": [
        {
          "internalType": "string",
          "name": "",
          "type": "string"
        }
      ],
      "name": "subnets",
      "outputs": [
        {
          "internalType": "string",
          "name": "name",
          "type": "string"
        },
        {
          "internalType": "string",
          "name": "description",
          "type": "string"
        },
        {
          "internalType": "string",
          "name": "owner",
          "type": "string"
        }
      ],
      "stateMutability": "view",
      "type": "function"
    },
    {
      "inputs": [
        {
          "internalType": "address",
          "name": "",
          "type": "address"
        }
      ],
      "name": "users",
      "outputs": [
        {
          "internalType": "string",
          "name": "mail",
          "type": "string"
        },
        {
          "internalType": "string",
          "name": "twitterHandle",
          "type": "string"
        }
      ],
      "stateMutability": "view",
      "type": "function"
    }
  ],
  "bytecode": "0x608060405234801561001057600080fd5b50610e18806100206000396000f3fe608060405234801561001057600080fd5b50600436106100625760003560e01c80631d2e4afd146100675780632e835c95146100835780633330cd77146100a1578063a87430ba146100d3578063aebb6f6b14610104578063d47a515c14610120575b600080fd5b610081600480360381019061007c9190610909565b61013c565b005b61008b6101e6565b6040516100989190610bcd565b60405180910390f35b6100bb60048036038101906100b69190610a53565b6102cf565b6040516100ca93929190610c26565b60405180910390f35b6100ed60048036038101906100e891906108e0565b6104d7565b6040516100fb929190610bef565b60405180910390f35b61011e60048036038101906101199190610909565b61062b565b005b61013a6004803603810190610135919061097e565b6106a1565b005b8383600260003373ffffffffffffffffffffffffffffffffffffffff1673ffffffffffffffffffffffffffffffffffffffff168152602001908152602001600020600001919061018d929190610782565b508181600260003373ffffffffffffffffffffffffffffffffffffffff1673ffffffffffffffffffffffffffffffffffffffff16815260200190815260200160002060010191906101df929190610782565b5050505050565b60606001805480602002602001604051908101604052809291908181526020016000905b828210156102c6578382906000526020600020018054600181600116156101000203166002900480601f0160208091040260200160405190810160405280929190818152602001828054600181600116156101000203166002900480156102b25780601f10610287576101008083540402835291602001916102b2565b820191906000526020600020905b81548152906001019060200180831161029557829003601f168201915b50505050508152602001906001019061020a565b50505050905090565b600081805160208101820180518482526020830160208501208183528095505050505050600091509050806000018054600181600116156101000203166002900480601f0160208091040260200160405190810160405280929190818152602001828054600181600116156101000203166002900480156103915780601f1061036657610100808354040283529160200191610391565b820191906000526020600020905b81548152906001019060200180831161037457829003601f168201915b505050505090806001018054600181600116156101000203166002900480601f01602080910402602001604051908101604052809291908181526020018280546001816001161561010002031660029004801561042f5780601f106104045761010080835404028352916020019161042f565b820191906000526020600020905b81548152906001019060200180831161041257829003601f168201915b505050505090806002018054600181600116156101000203166002900480601f0160208091040260200160405190810160405280929190818152602001828054600181600116156101000203166002900480156104cd5780601f106104a2576101008083540402835291602001916104cd565b820191906000526020600020905b8154815290600101906020018083116104b057829003601f168201915b5050505050905083565b6002602052806000526040600020600091509050806000018054600181600116156101000203166002900480601f0160208091040260200160405190810160405280929190818152602001828054600181600116156101000203166002900480156105835780601f1061055857610100808354040283529160200191610583565b820191906000526020600020905b81548152906001019060200180831161056657829003601f168201915b505050505090806001018054600181600116156101000203166002900480601f0160208091040260200160405190810160405280929190818152602001828054600181600116156101000203166002900480156106215780601f106105f657610100808354040283529160200191610621565b820191906000526020600020905b81548152906001019060200180831161060457829003601f168201915b5050505050905082565b8181600260003373ffffffffffffffffffffffffffffffffffffffff1673ffffffffffffffffffffffffffffffffffffffff168152602001908152602001600020600201868660405161067f929190610bb4565b9081526020016040518091039020919061069a929190610782565b5050505050565b858560008a8a6040516106b5929190610bb4565b908152602001604051809103902060000191906106d3929190610782565b50838360008a8a6040516106e8929190610bb4565b90815260200160405180910390206001019190610706929190610782565b50818160008a8a60405161071b929190610bb4565b90815260200160405180910390206002019190610739929190610782565b506001888890918060018154018082558091505060019003906000526020600020016000909192909192909192909192509190610777929190610782565b505050505050505050565b828054600181600116156101000203166002900490600052602060002090601f0160209004810192826107b857600085556107ff565b82601f106107d157803560ff19168380011785556107ff565b828001600101855582156107ff579182015b828111156107fe5782358255916020019190600101906107e3565b5b50905061080c9190610810565b5090565b5b80821115610829576000816000905550600101610811565b5090565b60008135905061083c81610dcb565b92915050565b60008083601f84011261085457600080fd5b8235905067ffffffffffffffff81111561086d57600080fd5b60208301915083600182028301111561088557600080fd5b9250929050565b600082601f83011261089d57600080fd5b81356108b06108ab82610ca3565b610c72565b915080825260208301602083018583830111156108cc57600080fd5b6108d7838284610d76565b50505092915050565b6000602082840312156108f257600080fd5b60006109008482850161082d565b91505092915050565b6000806000806040858703121561091f57600080fd5b600085013567ffffffffffffffff81111561093957600080fd5b61094587828801610842565b9450945050602085013567ffffffffffffffff81111561096457600080fd5b61097087828801610842565b925092505092959194509250565b6000806000806000806000806080898b03121561099a57600080fd5b600089013567ffffffffffffffff8111156109b457600080fd5b6109c08b828c01610842565b9850985050602089013567ffffffffffffffff8111156109df57600080fd5b6109eb8b828c01610842565b9650965050604089013567ffffffffffffffff811115610a0a57600080fd5b610a168b828c01610842565b9450945050606089013567ffffffffffffffff811115610a3557600080fd5b610a418b828c01610842565b92509250509295985092959890939650565b600060208284031215610a6557600080fd5b600082013567ffffffffffffffff811115610a7f57600080fd5b610a8b8482850161088c565b91505092915050565b6000610aa08383610b42565b905092915050565b6000610ab382610ce3565b610abd8185610d06565b935083602082028501610acf85610cd3565b8060005b85811015610b0b5784840389528151610aec8582610a94565b9450610af783610cf9565b925060208a01995050600181019050610ad3565b50829750879550505050505092915050565b6000610b298385610d39565b9350610b36838584610d76565b82840190509392505050565b6000610b4d82610cee565b610b578185610d17565b9350610b67818560208601610d85565b610b7081610dba565b840191505092915050565b6000610b8682610cee565b610b908185610d28565b9350610ba0818560208601610d85565b610ba981610dba565b840191505092915050565b6000610bc1828486610b1d565b91508190509392505050565b60006020820190508181036000830152610be78184610aa8565b905092915050565b60006040820190508181036000830152610c098185610b7b565b90508181036020830152610c1d8184610b7b565b90509392505050565b60006060820190508181036000830152610c408186610b7b565b90508181036020830152610c548185610b7b565b90508181036040830152610c688184610b7b565b9050949350505050565b6000604051905081810181811067ffffffffffffffff82111715610c9957610c98610db8565b5b8060405250919050565b600067ffffffffffffffff821115610cbe57610cbd610db8565b5b601f19601f8301169050602081019050919050565b6000819050602082019050919050565b600081519050919050565b600081519050919050565b6000602082019050919050565b600082825260208201905092915050565b600082825260208201905092915050565b600082825260208201905092915050565b600081905092915050565b6000610d4f82610d56565b9050919050565b600073ffffffffffffffffffffffffffffffffffffffff82169050919050565b82818337600083830152505050565b60005b83811015610da3578082015181840152602081019050610d88565b83811115610db2576000848401525b50505050565bfe5b6000601f19601f8301169050919050565b610dd481610d44565b8114610ddf57600080fd5b5056fea26469706673582212209b5aaf57e923271eb6a8c6def9e47951e3a90f6cbd24b79f06ab496f28a4ccdb64736f6c63430007050033",
  "linkReferences": {},
  "deployedLinkReferences": {}
}